:020000040800F2
:100000003804002049010008410800086907000879
:100010006D07000817060008211500080000000001
:10002000000000000000000000000000F9090008C6
:100030001B06000800000000C9080008490B000862
:100040006301000863010008630100086301000800
:1000500063010008630100086301000863010008F0
:1000600063010008630100086301000863010008E0
:1000700063010008630100086301000863010008D0
:1000800063010008630100086301000863010008C0
:1000900063010008630100086301000863010008B0
:1000A00063010008630100086301000863010008A0
:1000B0006301000863010008630100086301000890
:1000C0006301000863010008630100086301000880
:1000D0006301000863010008630100086301000870
:1000E0006301000863010008630100086301000860
:1000F0006301000863010008630100086301000850
:100100006301000863010008ED0D000863010008A9
:10011000630100086301000863010008630100082F
:10012000630100086301000863010008630100081F
:10013000DFF810D000F03EFA0048004745150008EF
:10014000AFF3008038040020064880470648004787
:10015000FEE7FEE7FEE7FEE7FEE7FEE7FEE7FEE777
:10016000FEE7FEE74D0B000831010008F0B480EA1D
:100170000102D40F4200B2EB410F02D20246084600
:1001800011464A0042D0C30DDDB2C1F3C752AD1AC9
:10019000202D35DAC1F3160141F4000204B15242B8
:1001A000C5F1200602FA06F12A411044B3EBD05FF4
:1001B00023D0C4B1012DA0EBC35009DCF0BC4FF03B
:1001C000004202EAC352DBB200F5000000F067B95A
:1001D000400000F1807000EBC350A0F1807040EA55
:1001E000D170490009E0490841EAC071A0EBC35051
:1001F00000F50000400800EBC350F0BC00F046B929
:100200006142012202EB4101001BF6E7F0BC70479E
:1002100081F00041AAE780F00040A7E780EA0102F0
:1002200010B502F00043400022D04A001FD0010E5A
:1002300001EB1261C0F35600C2F3560240F4000015
:1002400042F40002A0FB022000047F39140400D015
:10025000401C50EA124001D44000491EC2B20C06B4
:1002600004EBD010401C4008802A02D003E000209C
:1002700010BD20F00100002900DA0020184310BD55
:1002800030B480EA010202F0004530F0004221F073
:10029000004013D090B1C30DD40DC2F31601C0F3CA
:1002A0001600E41A41F4000140F400027D3491424A
:1002B00001D3641C00E04900002C02DA30BC0020AD
:1002C00070474FF400000023914201D3891A034381
:1002D00040084FEA4101F7D151B1914202D14FF0AC
:1002E000004105E002D24FF0010101E06FF0010191
:1002F00003EBC450284430BC00F0C8B82DE9FE4FD1
:1003000081EA030404F0004421F0004100944FF01E
:10031000000B23F0004350EA01045ED052EA0304CC
:100320005BD0C3F30A54C1F30A552C44A4F2F3344E
:100330000194A0FB0254C1F3130141F48011C3F3F3
:10034000130343F4801301FB024400FB034E840AB1
:10035000970A44EA815447EA8357A4FB0768029549
:100360008D0A05FB07854FEA932C04FB0C542705E7
:10037000029D4FEA065847EA1637B5EB08056EEBC3
:10038000070C870E920E47EA811742EA8312A7FBF9
:100390000201B6EB0B0164EB00042B0D43EA0C33B6
:1003A0005E1844EB1C50DA465146E7FB0201C5F3E8
:1003B00013044FEA0B3343EA14534FEA0432019C0F
:1003C00043EA0603A4F10C040294009CCDE900B4B6
:1003D00000F0A2F803B0BDE8F08F00200146F9E775
:1003E000C10F80EAE0700844CA079623002100F09C
:1003F00056B820F00040C10DC0F3160040F40000D4
:100400007F2901DA00207047962903DCC1F19601AB
:10041000C840704796398840704700F0004230F07D
:1004200000400AD0C10D01F56071C0F3160042EA28
:100430000151C20840071143704700200146704730
:1004400001F0004330B421F0004150EA010206D02F
:100450000A0DA2F56072C1F31301002A02DC30BC60
:1004600000207047440F44EAC104C100E01830BCCA
:1004700000EBC25000F00AB8002801DBC0F10040D8
:10048000002901DBC1F10041884270470029A8BF63
:100490007047401C490008BF20F00100704710B4AD
:1004A000B0FA80FC00FA0CF050EA010404BF10BC62
:1004B000704749B1CCF1200421FA04F411FA0CF18F
:1004C00018BF012121430843A3EB0C01CB1D4FEAC8
:1004D00000614FEA102042BF002010BC704700EBC3
:1004E000C35010440029A4BF10BC7047401C4900F1
:1004F00008BF20F0010010BC704710B5141E73F146
:10050000000408DA401C41F1000192185B411A43D3
:1005100001D120F0010010BD2DE9F04D92469B461F
:1005200011B1B1FA81F202E0B0FA80F220329046C5
:1005300000F052F804460F4640EA0A0041EA0B0177
:1005400053465A46084313D0114653EA010019D0C6
:10055000C8F14002504600F04EF805460E4650469F
:100560005946424600F038F8084305D0012004E01F
:1005700020463946BDE8F08D0020054346EAE07686
:100580002C4337430A986305E40AA0EB08000022D5
:10059000FD0A44EA47540A3002D500200146E9E743
:1005A000010510196941DDE9084500196941BDE8F7
:1005B000F04DA2E7064C074D06E0E06840F001036D
:1005C00094E8070098471034AC42F6D3FFF7B4FD27
:1005D00098160008B8160008202A04DB203A00FA12
:1005E00002F1002070479140C2F1200320FA03F38A
:1005F000194390407047202A04DB203A21FA02F088
:100600000021704721FA02F3D040C2F1200291404C
:1006100008431946704700BFFEE7704708B501213F
:10062000202000F0A7F948208DF80300F820ADF84D
:1006300000006946014800F003F808BD00140140BD
:100640002DE9F04102460025002600200023002469
:10065000002791F803C00CF00F0591F803C00CF0CF
:10066000100CBCF1000F03D091F802C04CEA050554
:1006700091F800C0BCF1000F31D0146800202BE0CD
:100680004FF0010C0CFA00F3B1F800C00CEA0306BD
:100690009E4220D183004FF00F0C0CFA03F7BC43AD
:1006A00005FA03FC4CEA040491F803C0BCF1280FDE
:1006B00006D14FF0010C0CFA00FCC2F814C00AE09D
:1006C00091F803C0BCF1480F05D14FF0010C0CFAB2
:1006D00000FCC2F810C0401C0828D1D31460B1F847
:1006E00000C0BCF1FF0F34DD546800202EE000F1A3
:1006F000080C4FF0010808FA0CF3B1F800C00CEA3E
:1007000003069E4221D183004FF00F0C0CFA03F731
:10071000BC4305FA03FC4CEA040491F803C0BCF1A5
:10072000280F05D100F1080C08FA0CF8C2F8148063
:1007300091F803C0BCF1480F07D100F1080C4FF04D
:10074000010808FA0CF8C2F81080401C0828CED323
:100750005460BDE8F0810246002093680B400BB165
:10076000012000E00020704700BFFEE700BFFEE769
:100770002DE9F0470446894649462046FFF74BFDE0
:100780002149C8600A46D1685069FFF7EFFC1E494D
:10079000486148691D49FFF76FFE02D81B481A4996
:1007A0004861194A1169D068FFF732FD07461648BB
:1007B00081683846FFF732FD0546134A5169506893
:1007C000FFF72CFD0746104AD1681068FFF726FD99
:1007D00080463946FFF7CAFC06462946FFF7C6FCA5
:1007E00082460948C068084908615046FFF715FE6F
:1007F0000746074A074BFFF781FD0546FFF720FE36
:1008000082465046BDE8F087200000200060EA469E
:100810009A9999999999A93F064807490860074804
:1008200048604FF07C5088600020C86008614861D3
:100830007047000000002041200000209A991940D4
:100840007047000070B5002100230F22C47804B364
:10085000154C246804F4E064C4F5E064210AC1F195
:100860000403CA40447804FA03F184781440214315
:1008700009010E4C0678A155047804F01F050124E7
:10088000AC4005786D11AD0005F1E025C5F80041DB
:1008900009E0047804F01F050124AC40044D0678FB
:1008A000761145F8264070BD0CED00E000E400E054
:1008B00080E100E002490143024A116070470000F4
:1008C0000000FA050CED00E07047000000B589B0AB
:1008D0000121082000F04EF80121042000F03AF830
:1008E00018208DF807004FF40070ADF804000320C5
:1008F0008DF8060001A91548FFF7A2FE41F61F403A
:10090000ADF81800C720ADF81C000020ADF81E009F
:10091000ADF81A0006A90E4800F0F2FC6020ADF810
:1009200008000020ADF810000120ADF80A000821F1
:10093000074800F0A3FC02A9054800F061FC012172
:10094000034800F098FA09B000BD0000000C014017
:100950000008004029B1064AD2690243044BDA611B
:1009600004E0034AD2698243014BDA617047000018
:100970000010024029B1064A92690243044B9A6171
:1009800004E0034A92698243014B9A617047000078
:100990000010024010B508211548FFF7DCFE0128C1
:1009A00001D11449087010211148FFF7D4FE012825
:1009B00002D102200F49087020210D48FFF7CBFE1D
:1009C000012802D103200B49087040210848FFF795
:1009D000C2FE012802D10420064908708021044883
:1009E000FFF7B9FE012802D105200249087010BDA9
:1009F000001401401C000020704710B500F002F800
:100A000010BD00000CB50020019000903348006834
:100A100040F480303149086000BF3048006800F47D
:100A2000003000900198401C0190009818B901987E
:100A3000B0F5A06FF1D12948006800F4003010B182
:100A40000120009001E0002000900098012843D18F
:100A50002348006840F010002149086008460068FB
:100A600020F0030008600846006840F002000860BB
:100A70001A48406819494860084640684860084676
:100A8000406840F4806048600846406820F47C106C
:100A900048600846406840F4E8104860084600682E
:100AA00040F08070086000BF0C48006800F00070E3
:100AB0000028F9D00948406820F003000749486041
:100AC0000846406840F00200486000BF03484068A4
:100AD00000F00C000828F9D10CBD00000010024005
:100AE000002002402DE9F04104460D4629462046EB
:100AF000FFF73EFE80461249FFF738FB0746FFF737
:100B000078FC86B231460F4800F0C5FB00210D4845
:100B100000F0C3FB00210B4800F0C1FB2946204632
:100B2000FFF726FE80460649FFF720FB0746FFF742
:100B300060FC86B23146034800F0B3FBBDE8F081AB
:100B400000007041002C01407047000010B51348B0
:100B5000006840F0010011490860084640681049EB
:100B600008400E494860084600680E4908400B4995
:100B700008600846006820F4802008600846406845
:100B800020F4FE0048604FF41F008860FFF735FF37
:100B90004FF000600449086010BD000000100240E2
:100BA0000000FFF8FFFFF6FE08ED00E0F0B50C4690
:100BB000154600220021068C4FF6FE773E40068443
:100BC000028B018C4FF60C7632407E1C06EA03162F
:100BD0002E433243104EB0420ED0104EB0420BD0D6
:100BE000B0F1804F08D00E4EB04205D00D4EB0424D
:100BF00002D00D4EB04206D14FF6FD76314044F0A2
:100C00000106314305E04FF6F576314044F0010628
:100C1000314302830184F0BD002C014000340140C7
:100C20000004004000080040000C0040F0B50C46F5
:100C30001546002200210026078C4FF6EF7C07EABC
:100C40000C070784028B018C4FF6FF7707EA041626
:100C500040F6FF473A404FF6FF7707EA03373A433B
:100C60004FF6FF7707EA05273A43114FB8420ED0F7
:100C7000104FB8420BD0B0F1804F08D00E4FB842A1
:100C800005D00E4FB84202D00D4FB84206D14FF6F4
:100C9000DF77394046F01007394305E04FF65F77BC
:100CA000394044F01007394302830184F0BD00004D
:100CB000002C0140003401400004004000080040C6
:100CC000000C0040F0B50C4615460022002100261D
:100CD000078C4FF6FF6C07EA0C070784828B018CA8
:100CE0004FF6FF7707EA04264FF60C773A404FF6A7
:100CF000FF7707EA03172F433A43114FB8420ED04C
:100D0000104FB8420BD0B0F1804F08D00E4FB84210
:100D100005D00E4FB84202D00D4FB84206D14FF663
:100D2000FF57394046F48077394305E04FF2FF57CB
:100D3000394044F48077394382830184F0BD000058
:100D4000002C014000340140000400400008004035
:100D5000000C0040F0B50C4615460022002100268C
:100D6000078C4EF6FF7C07EA0C070784828B018C08
:100D70004FF6FF7707EA043640F6FF473A404FF652
:100D8000FF7707EA05273A434FF6FF7707EA03376D
:100D90003A43114FB8420ED0104FB8420BD0B0F1C9
:100DA000804F08D00E4FB84205D00E4FB84202D047
:100DB0000D4FB84206D14DF6FF77394046F48057C3
:100DC000394305E047F6FF57394044F4805739432B
:100DD00082830184F0BD0000002C014000340140FA
:100DE0000004004000080040000C004010B5012144
:100DF000194800F07CF838B30121174800F038F8A2
:100E00004FF08041898CA1F57A70FFF7E9FA134918
:100E1000086013490988A1F57A70FFF7E1FA1149D2
:100E20000860084601680D480068FFF79FF904460E
:100E30004FF08041FFF724FA0B4908604FF47A70B5
:100E4000C106888406490880084801680648006889
:100E5000FFF748FE10BD0000000C0040000000201D
:100E60002404004004000020080000201800002096
:100E7000CA430282704721B1028842F00102028017
:100E800004E002884FF6FE731A400280704731B1C9
:100E9000B0F8442042F40042A0F8442005E0B0F845
:100EA0004420C2F30E02A0F844207047F0B50C466F
:100EB00015461E460021002200230189028B038C67
:100EC0004FF6F877394021434FF6FC473A4040F25D
:100ED00001173A434FF6DD773B404FF6FF7707EABD
:100EE00006172F433B43018102830384F0BD30B5D5
:100EF0000246002000230024158A05EA0103958993
:100F000005EA010413B10CB1012000E0002030BD5E
:100F100070B505460C46244885420ED023488542CC
:100F20000BD0B5F1804F08D02148854205D021482B
:100F3000854202D02048854200D100E000BF2088D1
:100F400050B92389A28861882846FFF72FFEE188DF
:100F5000284600F0A9F925E0208804280AD1238931
:100F6000A28861882846FFF761FEE188284600F0E4
:100F7000A4F917E0208808280AD12389A28861886B
:100F80002846FFF79FFEE188284600F0A3F909E014
:100F90002389A28861882846FFF7DCFEE18828467D
:100FA00000F0A1F970BD0000002C014000340140A8
:100FB0000004004000080040000C004000210180B7
:100FC0004180012181800021C180018170471AB1D7
:100FD00083890B43838102E083898B43838170473C
:100FE00070B5002400220023058C4FF6FE763540B4
:100FF0000584028C8388048B4FF68F752C40B51EB8
:101000002C400D882C43751E2A400D892A434D889B
:101010002A43144DA8420BD0134DA84208D0134DBB
:10102000A84205D0124DA84202D0124DA84213D1B9
:101030004FF6F7752A404D892A434FF6FB752A4033
:101040008D882A434FF6FF652B404FF6FF552B4006
:101050008D892B43CD892B4383800483CD8885865E
:10106000028470BD002C014000340140004001406A
:1010700000440140004801400A460021018B4FF620
:10108000F7731940114301837047000070B50024C5
:1010900000220023058C4FF6EF7635400584028C44
:1010A0008388048B48F6FF752C404FF6FF452C4093
:1010B0000D884FF6FF7606EA05252C434FF6DF75BF
:1010C0002A400D8906EA05152A434D8806EA0515CA
:1010D0002A43154DA84202D0144DA8421DD14FF607
:1010E0007F752A404D894FF6FF7606EA05152A439B
:1010F0004FF6BF752A408D8806EA05152A434FF63C
:10110000FF352B404FF2FF752B408D8906EA850590
:101110002B43CD8906EA85052B4383800483CD8844
:101120000587028470BD0000002C0140003401409E
:101130000A460021018B4FF2FF7319404FF6FF73EF
:1011400003EA0223194301837047000070B50024AD
:1011500000220023058C4FF6FF6635400584028C83
:101160008388848B4FF68F752C404FF6FC752C408E
:101170000D882C434FF6FF552A400D894FF6FF7618
:1011800006EA05252A434D8806EA05252A43154D1A
:10119000A84202D0144DA8421DD14FF2FF752A403B
:1011A0004D894FF6FF7606EA05252A434FF6FF35AF
:1011B0002A408D8806EA05252A434EF6FF752B4006
:1011C0004DF6FF752B408D8906EA05152B43CD8919
:1011D00006EA05152B4383808483CD8885870284A6
:1011E00070BD0000002C0140003401400A4600217F
:1011F000818B4FF6F77319401143818370470000CC
:1012000070B5002200230024058C4EF6FF76354091
:101210000584038C8488828B48F6FF752A404FF63C
:10122000FF452A400D884FF6FF7606EA05252A433A
:101230004DF6FF752B400D8906EA05352B434D8889
:1012400006EA05352B430B4DA84202D00A4DA842B1
:1012500008D14BF6FF752C408D894FF6FF7606EAD4
:1012600085152C4384808283CD88A0F84050038468
:1012700070BD0000002C0140003401400A460021EE
:10128000818B4FF2FF7319404FF6FF7303EA02237D
:101290001943818370478186704701877047818732
:1012A0007047A0F840107047028B4FF6F3731A4056
:1012B0000283028B0A4302837047028B4FF2FF3393
:1012C0001A400283028B4FF6FF7303EA01231A438D
:1012D00002837047828B4FF6F3731A408283828BAE
:1012E0000A4382837047828B4FF2FF331A40828316
:1012F000828B4FF6FF7303EA01231A438283704700
:10130000002202881D4B98420ED01D4B98420BD0F4
:10131000B0F1804F08D01B4B984205D01A4B984231
:1013200002D01A4B984204D14FF68F731A404B8863
:101330001A43174B984207D0164B984204D04FF6E9
:10134000FF431A40CB881A4302808B8883850B8821
:1013500003850A4B98420BD0094B984208D00E4B9C
:10136000984205D00D4B984202D00D4B984201D1C6
:101370000B7A03860123838270470000002C014012
:10138000003401400004004000080040000C004010
:1013900000100040001400400040014000440140A3
:1013A000004801404FF6FF71818000210180C1801B
:1013B000418001727047000000B587B00121042010
:1013C000FFF7D8FA01210846FFF7C4FA04208DF888
:1013D0000F000320ADF80C0003A91948FFF730F9FE
:1013E00004A8FFF7DFFF0020ADF8100041F28730BE
:1013F000ADF814000020ADF81200ADF8160004A9F5
:101400004FF08040FFF77CFF02231A460321580764
:10141000FFF74CFD6846FFF7D1FD0020ADF808004E
:1014200069464FF08040FFF773FD4FF47A70C106B4
:1014300088840121C006FFF71EFD07B000BD000033
:101440000008014000B587B001210420FFF792FA9F
:1014500001210220FFF77EFA04208DF80F00C02042
:10146000ADF80C0003A91848FFF7EAF804A8FFF745
:1014700099FF0020ADF8100041F28730ADF814005C
:101480000020ADF81200ADF8160004A90F48FFF7D0
:1014900037FF02231A4603210C48FFF707FD684671
:1014A000FFF78CFD0020ADF8080069460748FFF7FC
:1014B0002FFD4FF47A70054924310880012103483B
:1014C000FFF7D9FC07B000BD000801400004004050
:1014D00010B50446062C1DD2DFE804F01C03080DED
:1014E000121705210D48FFF7DCFE14E00A210B4816
:1014F000FFF7D7FE0FE00F210848FFF7D2FE0AE002
:1015000014210648FFF7CDFE05E019210348FFF737
:10151000C8FE00E000BF00BF10BD00000008004092
:1015200000BFFEE702E008C8121F08C1002AFAD176
:1015300070477047002001E001C1121F002AFBD153
:1015400070470000FFF76AF8FFF766F9FFF7BEF98A
:1015500000F010F8FFF730FFFFF774FF00F068F8B5
:1015600005E0FFF717FA02480078FFF7B1FFF8E748
:101570001C00002000B589B0012140F60400FFF7EF
:10158000F9F918208DF8230003208DF822004FF47C
:101590007060ADF8200008A92348FFF751F800203B
:1015A000ADF81A00ADF816006320ADF8180047201A
:1015B000ADF8140005A91D48FFF7A2FE6020ADF8A4
:1015C00004000020ADF80A000120ADF8060000205C
:1015D000ADF80C0008211548FFF74EFD082113480F
:1015E000FFF7A6FD08211148FFF700FE08210F486C
:1015F000FFF744FE01A90D48FFF7F2FC01A90B48D3
:10160000FFF744FD01A90948FFF7A0FD01A907481C
:10161000FFF7F6FD01210548FFF739FC01210348DA
:10162000FFF729FC09B000BD00080140002C014073
:101630001FB501210820FFF78DF940F2CF20ADF84A
:10164000040042F20F70ADF808000020ADF806006B
:10165000ADF80A0001A90F48FFF752FE012211461A
:101660000C48FFF7B4FC4FF4A060FFF723F93220D9
:101670008DF8000001208DF8030000208DF8010096
:101680008DF802006846FFF7DDF801210148FFF7F9
:10169000F2FB1FBD000C0040B8160008000000203F
:1016A0002000000024150008D816000820000020A3
:1016B00018040000341500080000000000000000BD
:1016C000000000000000000000000000000000001A
:0816D00000008442000000004C
:0400000508000131BD
:00000001FF
